{
  "contractName": "BaseToken",
  "abi": [
    {
      "inputs": [
        {
          "internalType": "string",
          "name": "_name",
          "type": "string"
        },
        {
          "internalType": "string",
          "name": "_symbol",
          "type": "string"
        },
        {
          "internalType": "uint256",
          "name": "_initMint",
          "type": "uint256"
        },
        {
          "internalType": "uint256",
          "name": "_maxMint",
          "type": "uint256"
        }
      ],
      "stateMutability": "nonpayable",
      "type": "constructor"
    },
    {
      "anonymous": false,
      "inputs": [
        {
          "indexed": true,
          "internalType": "address",
          "name": "owner",
          "type": "address"
        },
        {
          "indexed": true,
          "internalType": "address",
          "name": "spender",
          "type": "address"
        },
        {
          "indexed": false,
          "internalType": "uint256",
          "name": "value",
          "type": "uint256"
        }
      ],
      "name": "Approval",
      "type": "event"
    },
    {
      "anonymous": false,
      "inputs": [
        {
          "indexed": true,
          "internalType": "address",
          "name": "previousOwner",
          "type": "address"
        },
        {
          "indexed": true,
          "internalType": "address",
          "name": "newOwner",
          "type": "address"
        }
      ],
      "name": "OwnershipTransferred",
      "type": "event"
    },
    {
      "anonymous": false,
      "inputs": [
        {
          "indexed": false,
          "internalType": "address",
          "name": "account",
          "type": "address"
        }
      ],
      "name": "Paused",
      "type": "event"
    },
    {
      "anonymous": false,
      "inputs": [
        {
          "indexed": true,
          "internalType": "bytes32",
          "name": "role",
          "type": "bytes32"
        },
        {
          "indexed": true,
          "internalType": "bytes32",
          "name": "previousAdminRole",
          "type": "bytes32"
        },
        {
          "indexed": true,
          "internalType": "bytes32",
          "name": "newAdminRole",
          "type": "bytes32"
        }
      ],
      "name": "RoleAdminChanged",
      "type": "event"
    },
    {
      "anonymous": false,
      "inputs": [
        {
          "indexed": true,
          "internalType": "bytes32",
          "name": "role",
          "type": "bytes32"
        },
        {
          "indexed": true,
          "internalType": "address",
          "name": "account",
          "type": "address"
        },
        {
          "indexed": true,
          "internalType": "address",
          "name": "sender",
          "type": "address"
        }
      ],
      "name": "RoleGranted",
      "type": "event"
    },
    {
      "anonymous": false,
      "inputs": [
        {
          "indexed": true,
          "internalType": "bytes32",
          "name": "role",
          "type": "bytes32"
        },
        {
          "indexed": true,
          "internalType": "address",
          "name": "account",
          "type": "address"
        },
        {
          "indexed": true,
          "internalType": "address",
          "name": "sender",
          "type": "address"
        }
      ],
      "name": "RoleRevoked",
      "type": "event"
    },
    {
      "anonymous": false,
      "inputs": [
        {
          "indexed": true,
          "internalType": "address",
          "name": "from",
          "type": "address"
        },
        {
          "indexed": true,
          "internalType": "address",
          "name": "to",
          "type": "address"
        },
        {
          "indexed": false,
          "internalType": "uint256",
          "name": "value",
          "type": "uint256"
        }
      ],
      "name": "Transfer",
      "type": "event"
    },
    {
      "anonymous": false,
      "inputs": [
        {
          "indexed": false,
          "internalType": "address",
          "name": "account",
          "type": "address"
        }
      ],
      "name": "Unpaused",
      "type": "event"
    },
    {
      "inputs": [],
      "name": "DEFAULT_ADMIN_ROLE",
      "outputs": [
        {
          "internalType": "bytes32",
          "name": "",
          "type": "bytes32"
        }
      ],
      "stateMutability": "view",
      "type": "function",
      "constant": true
    },
    {
      "inputs": [],
      "name": "MINTER_ROLE",
      "outputs": [
        {
          "internalType": "bytes32",
          "name": "",
          "type": "bytes32"
        }
      ],
      "stateMutability": "view",
      "type": "function",
      "constant": true
    },
    {
      "inputs": [],
      "name": "PAUSER_ROLE",
      "outputs": [
        {
          "internalType": "bytes32",
          "name": "",
          "type": "bytes32"
        }
      ],
      "stateMutability": "view",
      "type": "function",
      "constant": true
    },
    {
      "inputs": [
        {
          "internalType": "address",
          "name": "owner",
          "type": "address"
        },
        {
          "internalType": "address",
          "name": "spender",
          "type": "address"
        }
      ],
      "name": "allowance",
      "outputs": [
        {
          "internalType": "uint256",
          "name": "",
          "type": "uint256"
        }
      ],
      "stateMutability": "view",
      "type": "function",
      "constant": true
    },
    {
      "inputs": [
        {
          "internalType": "address",
          "name": "spender",
          "type": "address"
        },
        {
          "internalType": "uint256",
          "name": "amount",
          "type": "uint256"
        }
      ],
      "name": "approve",
      "outputs": [
        {
          "internalType": "bool",
          "name": "",
          "type": "bool"
        }
      ],
      "stateMutability": "nonpayable",
      "type": "function"
    },
    {
      "inputs": [
        {
          "internalType": "address",
          "name": "account",
          "type": "address"
        }
      ],
      "name": "balanceOf",
      "outputs": [
        {
          "internalType": "uint256",
          "name": "",
          "type": "uint256"
        }
      ],
      "stateMutability": "view",
      "type": "function",
      "constant": true
    },
    {
      "inputs": [],
      "name": "decimals",
      "outputs": [
        {
          "internalType": "uint8",
          "name": "",
          "type": "uint8"
        }
      ],
      "stateMutability": "view",
      "type": "function",
      "constant": true
    },
    {
      "inputs": [
        {
          "internalType": "address",
          "name": "spender",
          "type": "address"
        },
        {
          "internalType": "uint256",
          "name": "subtractedValue",
          "type": "uint256"
        }
      ],
      "name": "decreaseAllowance",
      "outputs": [
        {
          "internalType": "bool",
          "name": "",
          "type": "bool"
        }
      ],
      "stateMutability": "nonpayable",
      "type": "function"
    },
    {
      "inputs": [
        {
          "internalType": "bytes32",
          "name": "role",
          "type": "bytes32"
        }
      ],
      "name": "getRoleAdmin",
      "outputs": [
        {
          "internalType": "bytes32",
          "name": "",
          "type": "bytes32"
        }
      ],
      "stateMutability": "view",
      "type": "function",
      "constant": true
    },
    {
      "inputs": [
        {
          "internalType": "bytes32",
          "name": "role",
          "type": "bytes32"
        },
        {
          "internalType": "address",
          "name": "account",
          "type": "address"
        }
      ],
      "name": "grantRole",
      "outputs": [],
      "stateMutability": "nonpayable",
      "type": "function"
    },
    {
      "inputs": [
        {
          "internalType": "bytes32",
          "name": "role",
          "type": "bytes32"
        },
        {
          "internalType": "address",
          "name": "account",
          "type": "address"
        }
      ],
      "name": "hasRole",
      "outputs": [
        {
          "internalType": "bool",
          "name": "",
          "type": "bool"
        }
      ],
      "stateMutability": "view",
      "type": "function",
      "constant": true
    },
    {
      "inputs": [
        {
          "internalType": "address",
          "name": "spender",
          "type": "address"
        },
        {
          "internalType": "uint256",
          "name": "addedValue",
          "type": "uint256"
        }
      ],
      "name": "increaseAllowance",
      "outputs": [
        {
          "internalType": "bool",
          "name": "",
          "type": "bool"
        }
      ],
      "stateMutability": "nonpayable",
      "type": "function"
    },
    {
      "inputs": [],
      "name": "name",
      "outputs": [
        {
          "internalType": "string",
          "name": "",
          "type": "string"
        }
      ],
      "stateMutability": "view",
      "type": "function",
      "constant": true
    },
    {
      "inputs": [],
      "name": "owner",
      "outputs": [
        {
          "internalType": "address",
          "name": "",
          "type": "address"
        }
      ],
      "stateMutability": "view",
      "type": "function",
      "constant": true
    },
    {
      "inputs": [],
      "name": "paused",
      "outputs": [
        {
          "internalType": "bool",
          "name": "",
          "type": "bool"
        }
      ],
      "stateMutability": "view",
      "type": "function",
      "constant": true
    },
    {
      "inputs": [],
      "name": "renounceOwnership",
      "outputs": [],
      "stateMutability": "nonpayable",
      "type": "function"
    },
    {
      "inputs": [
        {
          "internalType": "bytes32",
          "name": "role",
          "type": "bytes32"
        },
        {
          "internalType": "address",
          "name": "account",
          "type": "address"
        }
      ],
      "name": "renounceRole",
      "outputs": [],
      "stateMutability": "nonpayable",
      "type": "function"
    },
    {
      "inputs": [
        {
          "internalType": "bytes32",
          "name": "role",
          "type": "bytes32"
        },
        {
          "internalType": "address",
          "name": "account",
          "type": "address"
        }
      ],
      "name": "revokeRole",
      "outputs": [],
      "stateMutability": "nonpayable",
      "type": "function"
    },
    {
      "inputs": [
        {
          "internalType": "bytes4",
          "name": "interfaceId",
          "type": "bytes4"
        }
      ],
      "name": "supportsInterface",
      "outputs": [
        {
          "internalType": "bool",
          "name": "",
          "type": "bool"
        }
      ],
      "stateMutability": "view",
      "type": "function",
      "constant": true
    },
    {
      "inputs": [],
      "name": "symbol",
      "outputs": [
        {
          "internalType": "string",
          "name": "",
          "type": "string"
        }
      ],
      "stateMutability": "view",
      "type": "function",
      "constant": true
    },
    {
      "inputs": [],
      "name": "totalSupply",
      "outputs": [
        {
          "internalType": "uint256",
          "name": "",
          "type": "uint256"
        }
      ],
      "stateMutability": "view",
      "type": "function",
      "constant": true
    },
    {
      "inputs": [
        {
          "internalType": "address",
          "name": "recipient",
          "type": "address"
        },
        {
          "internalType": "uint256",
          "name": "amount",
          "type": "uint256"
        }
      ],
      "name": "transfer",
      "outputs": [
        {
          "internalType": "bool",
          "name": "",
          "type": "bool"
        }
      ],
      "stateMutability": "nonpayable",
      "type": "function"
    },
    {
      "inputs": [
        {
          "internalType": "address",
          "name": "sender",
          "type": "address"
        },
        {
          "internalType": "address",
          "name": "recipient",
          "type": "address"
        },
        {
          "internalType": "uint256",
          "name": "amount",
          "type": "uint256"
        }
      ],
      "name": "transferFrom",
      "outputs": [
        {
          "internalType": "bool",
          "name": "",
          "type": "bool"
        }
      ],
      "stateMutability": "nonpayable",
      "type": "function"
    },
    {
      "inputs": [
        {
          "internalType": "address",
          "name": "newOwner",
          "type": "address"
        }
      ],
      "name": "transferOwnership",
      "outputs": [],
      "stateMutability": "nonpayable",
      "type": "function"
    },
    {
      "inputs": [],
      "name": "pause",
      "outputs": [],
      "stateMutability": "nonpayable",
      "type": "function"
    },
    {
      "inputs": [],
      "name": "unpause",
      "outputs": [],
      "stateMutability": "nonpayable",
      "type": "function"
    },
    {
      "inputs": [
        {
          "internalType": "address",
          "name": "to",
          "type": "address"
        },
        {
          "internalType": "uint256",
          "name": "amount",
          "type": "uint256"
        }
      ],
      "name": "mint",
      "outputs": [],
      "stateMutability": "nonpayable",
      "type": "function"
    }
  ],
  "bytecode": "0x60806040523480156200001157600080fd5b506040516200392a3803806200392a83398181016040528101906200003791906200076a565b838381600390805190602001906200005192919062000631565b5080600490805190602001906200006a92919062000631565b5050506000600560006101000a81548160ff021916908315150217905550620000a86200009c620001dd60201b60201c565b620001e560201b60201c565b620000cc6000801b620000c0620001dd60201b60201c565b620002ab60201b60201c565b6200010d7f65d7a28e3265b37a6474929f336521b332c1681b933f6cb9f3376673440d862a62000101620001dd60201b60201c565b620002ab60201b60201c565b6200014e7f9f2df0fed2c77648de5860a4cc508cd0818c85b8b8a1ab4ceeef8d981c8956a662000142620001dd60201b60201c565b620002ab60201b60201c565b6200015e620002c160201b60201c565b600a6200016c9190620009f0565b8262000179919062000b2d565b600981905550620001a262000193620001dd60201b60201c565b600954620002ca60201b60201c565b620001b2620002c160201b60201c565b600a620001c09190620009f0565b81620001cd919062000b2d565b6008819055505050505062000d5e565b600033905090565b6000600760009054906101000a900473ffffffffffffffffffffffffffffffffffffffff16905081600760006101000a81548173ffffffffffffffffffffffffffffffffffffffff021916908373ffffffffffffffffffffffffffffffffffffffff1602179055508173ffffffffffffffffffffffffffffffffffffffff168173ffffffffffffffffffffffffffffffffffffffff167f8be0079c531659141344cd1fd0a4f28419497f9722a3daafe3b4186f6b6457e060405160405180910390a35050565b620002bd82826200044360201b60201c565b5050565b60006012905090565b600073ffffffffffffffffffffffffffffffffffffffff168273ffffffffffffffffffffffffffffffffffffffff1614156200033d576040517f08c379a0000000000000000000000000000000000000000000000000000000008152600401620003349062000889565b60405180910390fd5b62000351600083836200053560201b60201c565b806002600082825462000365919062000938565b92505081905550806000808473ffffffffffffffffffffffffffffffffffffffff1673ffffffffffffffffffffffffffffffffffffffff1681526020019081526020016000206000828254620003bc919062000938565b925050819055508173ffffffffffffffffffffffffffffffffffffffff16600073ffffffffffffffffffffffffffffffffffffffff167fddf252ad1be2c89b69c2b068fc378daa952ba7f163c4a11628f55a4df523b3ef83604051620004239190620008ab565b60405180910390a36200043f60008383620005a560201b60201c565b5050565b620004558282620005aa60201b60201c565b620005315760016006600084815260200190815260200160002060000160008373ffffffffffffffffffffffffffffffffffffffff1673ffffffffffffffffffffffffffffffffffffffff16815260200190815260200160002060006101000a81548160ff021916908315150217905550620004d6620001dd60201b60201c565b73ffffffffffffffffffffffffffffffffffffffff168173ffffffffffffffffffffffffffffffffffffffff16837f2f8788117e7eff1d82e926ec794901d17c78024a50270940304540a733656f0d60405160405180910390a45b5050565b620005456200061560201b60201c565b1562000588576040517f08c379a00000000000000000000000000000000000000000000000000000000081526004016200057f9062000867565b60405180910390fd5b620005a08383836200062c60201b62000f131760201c565b505050565b505050565b60006006600084815260200190815260200160002060000160008373ffffffffffffffffffffffffffffffffffffffff1673ffffffffffffffffffffffffffffffffffffffff16815260200190815260200160002060009054906101000a900460ff16905092915050565b6000600560009054906101000a900460ff16905090565b505050565b8280546200063f9062000bdb565b90600052602060002090601f016020900481019282620006635760008555620006af565b82601f106200067e57805160ff1916838001178555620006af565b82800160010185558215620006af579182015b82811115620006ae57825182559160200191906001019062000691565b5b509050620006be9190620006c2565b5090565b5b80821115620006dd576000816000905550600101620006c3565b5090565b6000620006f8620006f284620008f1565b620008c8565b9050828152602081018484840111156200071157600080fd5b6200071e84828562000ba5565b509392505050565b600082601f8301126200073857600080fd5b81516200074a848260208601620006e1565b91505092915050565b600081519050620007648162000d44565b92915050565b600080600080608085870312156200078157600080fd5b600085015167ffffffffffffffff8111156200079c57600080fd5b620007aa8782880162000726565b945050602085015167ffffffffffffffff811115620007c857600080fd5b620007d68782880162000726565b9350506040620007e98782880162000753565b9250506060620007fc8782880162000753565b91505092959194509250565b60006200081760108362000927565b9150620008248262000cf2565b602082019050919050565b60006200083e601f8362000927565b91506200084b8262000d1b565b602082019050919050565b620008618162000b8e565b82525050565b60006020820190508181036000830152620008828162000808565b9050919050565b60006020820190508181036000830152620008a4816200082f565b9050919050565b6000602082019050620008c2600083018462000856565b92915050565b6000620008d4620008e7565b9050620008e2828262000c11565b919050565b6000604051905090565b600067ffffffffffffffff8211156200090f576200090e62000ca5565b5b6200091a8262000cd4565b9050602081019050919050565b600082825260208201905092915050565b6000620009458262000b8e565b9150620009528362000b8e565b9250827fffffffffffffffffffffffffffffffffffffffffffffffffffffffffffffffff038211156200098a576200098962000c47565b5b828201905092915050565b6000808291508390505b6001851115620009e757808604811115620009bf57620009be62000c47565b5b6001851615620009cf5780820291505b8081029050620009df8562000ce5565b94506200099f565b94509492505050565b6000620009fd8262000b8e565b915062000a0a8362000b98565b925062000a397fffffffffffffffffffffffffffffffffffffffffffffffffffffffffffffffff848462000a41565b905092915050565b60008262000a53576001905062000b26565b8162000a63576000905062000b26565b816001811462000a7c576002811462000a875762000abd565b600191505062000b26565b60ff84111562000a9c5762000a9b62000c47565b5b8360020a91508482111562000ab65762000ab562000c47565b5b5062000b26565b5060208310610133831016604e8410600b841016171562000af75782820a90508381111562000af15762000af062000c47565b5b62000b26565b62000b06848484600162000995565b9250905081840481111562000b205762000b1f62000c47565b5b81810290505b9392505050565b600062000b3a8262000b8e565b915062000b478362000b8e565b9250817fffffffffffffffffffffffffffffffffffffffffffffffffffffffffffffffff048311821515161562000b835762000b8262000c47565b5b828202905092915050565b6000819050919050565b600060ff82169050919050565b60005b8381101562000bc557808201518184015260208101905062000ba8565b8381111562000bd5576000848401525b50505050565b6000600282049050600182168062000bf457607f821691505b6020821081141562000c0b5762000c0a62000c76565b5b50919050565b62000c1c8262000cd4565b810181811067ffffffffffffffff8211171562000c3e5762000c3d62000ca5565b5b80604052505050565b7f4e487b7100000000000000000000000000000000000000000000000000000000600052601160045260246000fd5b7f4e487b7100000000000000000000000000000000000000000000000000000000600052602260045260246000fd5b7f4e487b7100000000000000000000000000000000000000000000000000000000600052604160045260246000fd5b6000601f19601f8301169050919050565b60008160011c9050919050565b7f5061757361626c653a2070617573656400000000000000000000000000000000600082015250565b7f45524332303a206d696e7420746f20746865207a65726f206164647265737300600082015250565b62000d4f8162000b8e565b811462000d5b57600080fd5b50565b612bbc8062000d6e6000396000f3fe608060405234801561001057600080fd5b50600436106101a95760003560e01c806370a08231116100f9578063a457c2d711610097578063d547741f11610071578063d547741f146104c0578063dd62ed3e146104dc578063e63ab1e91461050c578063f2fde38b1461052a576101a9565b8063a457c2d714610442578063a9059cbb14610472578063d5391393146104a2576101a9565b80638da5cb5b116100d35780638da5cb5b146103b857806391d14854146103d657806395d89b4114610406578063a217fddf14610424576101a9565b806370a0823114610374578063715018a6146103a45780638456cb59146103ae576101a9565b80632f2ff15d11610166578063395093511161014057806339509351146103005780633f4ba83a1461033057806340c10f191461033a5780635c975abb14610356576101a9565b80632f2ff15d146102aa578063313ce567146102c657806336568abe146102e4576101a9565b806301ffc9a7146101ae57806306fdde03146101de578063095ea7b3146101fc57806318160ddd1461022c57806323b872dd1461024a578063248a9ca31461027a575b600080fd5b6101c860048036038101906101c39190611ea1565b610546565b6040516101d59190612227565b60405180910390f35b6101e66105c0565b6040516101f3919061225d565b60405180910390f35b61021660048036038101906102119190611e00565b610652565b6040516102239190612227565b60405180910390f35b610234610670565b604051610241919061245f565b60405180910390f35b610264600480360381019061025f9190611db1565b61067a565b6040516102719190612227565b60405180910390f35b610294600480360381019061028f9190611e3c565b610772565b6040516102a19190612242565b60405180910390f35b6102c460048036038101906102bf9190611e65565b610792565b005b6102ce6107bb565b6040516102db919061247a565b60405180910390f35b6102fe60048036038101906102f99190611e65565b6107c4565b005b61031a60048036038101906103159190611e00565b610847565b6040516103279190612227565b60405180910390f35b6103386108f3565b005b610354600480360381019061034f9190611e00565b610930565b005b61035e6109c8565b60405161036b9190612227565b60405180910390f35b61038e60048036038101906103899190611d4c565b6109df565b60405161039b919061245f565b60405180910390f35b6103ac610a27565b005b6103b6610aaf565b005b6103c0610aec565b6040516103cd919061220c565b60405180910390f35b6103f060048036038101906103eb9190611e65565b610b16565b6040516103fd9190612227565b60405180910390f35b61040e610b81565b60405161041b919061225d565b60405180910390f35b61042c610c13565b6040516104399190612242565b60405180910390f35b61045c60048036038101906104579190611e00565b610c1a565b6040516104699190612227565b60405180910390f35b61048c60048036038101906104879190611e00565b610d05565b6040516104999190612227565b60405180910390f35b6104aa610d23565b6040516104b79190612242565b60405180910390f35b6104da60048036038101906104d59190611e65565b610d47565b005b6104f660048036038101906104f19190611d75565b610d70565b604051610503919061245f565b60405180910390f35b610514610df7565b6040516105219190612242565b60405180910390f35b610544600480360381019061053f9190611d4c565b610e1b565b005b60007f7965db0b000000000000000000000000000000000000000000000000000000007bffffffffffffffffffffffffffffffffffffffffffffffffffffffff1916827bffffffffffffffffffffffffffffffffffffffffffffffffffffffff191614806105b957506105b882610f18565b5b9050919050565b6060600380546105cf90612654565b80601f01602080910402602001604051908101604052809291908181526020018280546105fb90612654565b80156106485780601f1061061d57610100808354040283529160200191610648565b820191906000526020600020905b81548152906001019060200180831161062b57829003601f168201915b5050505050905090565b600061066661065f610f82565b8484610f8a565b6001905092915050565b6000600254905090565b6000610687848484611155565b6000600160008673ffffffffffffffffffffffffffffffffffffffff1673ffffffffffffffffffffffffffffffffffffffff16815260200190815260200160002060006106d2610f82565b73ffffffffffffffffffffffffffffffffffffffff1673ffffffffffffffffffffffffffffffffffffffff16815260200190815260200160002054905082811015610752576040517f08c379a00000000000000000000000000000000000000000000000000000000081526004016107499061235f565b60405180910390fd5b6107668561075e610f82565b858403610f8a565b60019150509392505050565b600060066000838152602001908152602001600020600101549050919050565b61079b82610772565b6107ac816107a7610f82565b6113d6565b6107b68383611473565b505050565b60006012905090565b6107cc610f82565b73ffffffffffffffffffffffffffffffffffffffff168173ffffffffffffffffffffffffffffffffffffffff1614610839576040517f08c379a00000000000000000000000000000000000000000000000000000000081526004016108309061241f565b60405180910390fd5b6108438282611554565b5050565b60006108e9610854610f82565b848460016000610862610f82565b73ffffffffffffffffffffffffffffffffffffffff1673ffffffffffffffffffffffffffffffffffffffff16815260200190815260200160002060008873ffffffffffffffffffffffffffffffffffffffff1673ffffffffffffffffffffffffffffffffffffffff168152602001908152602001600020546108e491906124bc565b610f8a565b6001905092915050565b7f65d7a28e3265b37a6474929f336521b332c1681b933f6cb9f3376673440d862a61092581610920610f82565b6113d6565b61092d611636565b50565b7f9f2df0fed2c77648de5860a4cc508cd0818c85b8b8a1ab4ceeef8d981c8956a66109628161095d610f82565b6113d6565b6008548261096e610670565b61097891906124bc565b11156109b9576040517f08c379a00000000000000000000000000000000000000000000000000000000081526004016109b0906123bf565b60405180910390fd5b6109c383836116d8565b505050565b6000600560009054906101000a900460ff16905090565b60008060008373ffffffffffffffffffffffffffffffffffffffff1673ffffffffffffffffffffffffffffffffffffffff168152602001908152602001600020549050919050565b610a2f610f82565b73ffffffffffffffffffffffffffffffffffffffff16610a4d610aec565b73ffffffffffffffffffffffffffffffffffffffff1614610aa3576040517f08c379a0000000000000000000000000000000000000000000000000000000008152600401610a9a9061237f565b60405180910390fd5b610aad6000611838565b565b7f65d7a28e3265b37a6474929f336521b332c1681b933f6cb9f3376673440d862a610ae181610adc610f82565b6113d6565b610ae96118fe565b50565b6000600760009054906101000a900473ffffffffffffffffffffffffffffffffffffffff16905090565b60006006600084815260200190815260200160002060000160008373ffffffffffffffffffffffffffffffffffffffff1673ffffffffffffffffffffffffffffffffffffffff16815260200190815260200160002060009054906101000a900460ff16905092915050565b606060048054610b9090612654565b80601f0160208091040260200160405190810160405280929190818152602001828054610bbc90612654565b8015610c095780601f10610bde57610100808354040283529160200191610c09565b820191906000526020600020905b815481529060010190602001808311610bec57829003601f168201915b5050505050905090565b6000801b81565b60008060016000610c29610f82565b73ffffffffffffffffffffffffffffffffffffffff1673ffffffffffffffffffffffffffffffffffffffff16815260200190815260200160002060008573ffffffffffffffffffffffffffffffffffffffff1673ffffffffffffffffffffffffffffffffffffffff16815260200190815260200160002054905082811015610ce6576040517f08c379a0000000000000000000000000000000000000000000000000000000008152600401610cdd906123ff565b60405180910390fd5b610cfa610cf1610f82565b85858403610f8a565b600191505092915050565b6000610d19610d12610f82565b8484611155565b6001905092915050565b7f9f2df0fed2c77648de5860a4cc508cd0818c85b8b8a1ab4ceeef8d981c8956a681565b610d5082610772565b610d6181610d5c610f82565b6113d6565b610d6b8383611554565b505050565b6000600160008473ffffffffffffffffffffffffffffffffffffffff1673ffffffffffffffffffffffffffffffffffffffff16815260200190815260200160002060008373ffffffffffffffffffffffffffffffffffffffff1673ffffffffffffffffffffffffffffffffffffffff16815260200190815260200160002054905092915050565b7f65d7a28e3265b37a6474929f336521b332c1681b933f6cb9f3376673440d862a81565b610e23610f82565b73ffffffffffffffffffffffffffffffffffffffff16610e41610aec565b73ffffffffffffffffffffffffffffffffffffffff1614610e97576040517f08c379a0000000000000000000000000000000000000000000000000000000008152600401610e8e9061237f565b60405180910390fd5b600073ffffffffffffffffffffffffffffffffffffffff168173ffffffffffffffffffffffffffffffffffffffff161415610f07576040517f08c379a0000000000000000000000000000000000000000000000000000000008152600401610efe906122df565b60405180910390fd5b610f1081611838565b50565b505050565b60007f01ffc9a7000000000000000000000000000000000000000000000000000000007bffffffffffffffffffffffffffffffffffffffffffffffffffffffff1916827bffffffffffffffffffffffffffffffffffffffffffffffffffffffff1916149050919050565b600033905090565b600073ffffffffffffffffffffffffffffffffffffffff168373ffffffffffffffffffffffffffffffffffffffff161415610ffa576040517f08c379a0000000000000000000000000000000000000000000000000000000008152600401610ff1906123df565b60405180910390fd5b600073ffffffffffffffffffffffffffffffffffffffff168273ffffffffffffffffffffffffffffffffffffffff16141561106a576040517f08c379a0000000000000000000000000000000000000000000000000000000008152600401611061906122ff565b60405180910390fd5b80600160008573ffffffffffffffffffffffffffffffffffffffff1673ffffffffffffffffffffffffffffffffffffffff16815260200190815260200160002060008473ffffffffffffffffffffffffffffffffffffffff1673ffffffffffffffffffffffffffffffffffffffff168152602001908152602001600020819055508173ffffffffffffffffffffffffffffffffffffffff168373ffffffffffffffffffffffffffffffffffffffff167f8c5be1e5ebec7d5bd14f71427d1e84f3dd0314c0f7b2291e5b200ac8c7c3b92583604051611148919061245f565b60405180910390a3505050565b600073ffffffffffffffffffffffffffffffffffffffff168373ffffffffffffffffffffffffffffffffffffffff1614156111c5576040517f08c379a00000000000000000000000000000000000000000000000000000000081526004016111bc9061239f565b60405180910390fd5b600073ffffffffffffffffffffffffffffffffffffffff168273ffffffffffffffffffffffffffffffffffffffff161415611235576040517f08c379a000000000000000000000000000000000000000000000000000000000815260040161122c9061229f565b60405180910390fd5b6112408383836119a1565b60008060008573ffffffffffffffffffffffffffffffffffffffff1673ffffffffffffffffffffffffffffffffffffffff168152602001908152602001600020549050818110156112c6576040517f08c379a00000000000000000000000000000000000000000000000000000000081526004016112bd9061231f565b60405180910390fd5b8181036000808673ffffffffffffffffffffffffffffffffffffffff1673ffffffffffffffffffffffffffffffffffffffff16815260200190815260200160002081905550816000808573ffffffffffffffffffffffffffffffffffffffff1673ffffffffffffffffffffffffffffffffffffffff168152602001908152602001600020600082825461135991906124bc565b925050819055508273ffffffffffffffffffffffffffffffffffffffff168473ffffffffffffffffffffffffffffffffffffffff167fddf252ad1be2c89b69c2b068fc378daa952ba7f163c4a11628f55a4df523b3ef846040516113bd919061245f565b60405180910390a36113d08484846119f9565b50505050565b6113e08282610b16565b61146f576114058173ffffffffffffffffffffffffffffffffffffffff1660146119fe565b6114138360001c60206119fe565b6040516020016114249291906121d2565b6040516020818303038152906040526040517f08c379a0000000000000000000000000000000000000000000000000000000008152600401611466919061225d565b60405180910390fd5b5050565b61147d8282610b16565b6115505760016006600084815260200190815260200160002060000160008373ffffffffffffffffffffffffffffffffffffffff1673ffffffffffffffffffffffffffffffffffffffff16815260200190815260200160002060006101000a81548160ff0219169083151502179055506114f5610f82565b73ffffffffffffffffffffffffffffffffffffffff168173ffffffffffffffffffffffffffffffffffffffff16837f2f8788117e7eff1d82e926ec794901d17c78024a50270940304540a733656f0d60405160405180910390a45b5050565b61155e8282610b16565b156116325760006006600084815260200190815260200160002060000160008373ffffffffffffffffffffffffffffffffffffffff1673ffffffffffffffffffffffffffffffffffffffff16815260200190815260200160002060006101000a81548160ff0219169083151502179055506115d7610f82565b73ffffffffffffffffffffffffffffffffffffffff168173ffffffffffffffffffffffffffffffffffffffff16837ff6391f5c32d9c69d2a47ea670b442974b53935d1edc7fd64eb21e047a839171b60405160405180910390a45b5050565b61163e6109c8565b61167d576040517f08c379a0000000000000000000000000000000000000000000000000000000008152600401611674906122bf565b60405180910390fd5b6000600560006101000a81548160ff0219169083151502179055507f5db9ee0a495bf2e6ff9c91a7834c1ba4fdd244a5e8aa4e537bd38aeae4b073aa6116c1610f82565b6040516116ce919061220c565b60405180910390a1565b600073ffffffffffffffffffffffffffffffffffffffff168273ffffffffffffffffffffffffffffffffffffffff161415611748576040517f08c379a000000000000000000000000000000000000000000000000000000000815260040161173f9061243f565b60405180910390fd5b611754600083836119a1565b806002600082825461176691906124bc565b92505081905550806000808473ffffffffffffffffffffffffffffffffffffffff1673ffffffffffffffffffffffffffffffffffffffff16815260200190815260200160002060008282546117bb91906124bc565b925050819055508173ffffffffffffffffffffffffffffffffffffffff16600073ffffffffffffffffffffffffffffffffffffffff167fddf252ad1be2c89b69c2b068fc378daa952ba7f163c4a11628f55a4df523b3ef83604051611820919061245f565b60405180910390a3611834600083836119f9565b5050565b6000600760009054906101000a900473ffffffffffffffffffffffffffffffffffffffff16905081600760006101000a81548173ffffffffffffffffffffffffffffffffffffffff021916908373ffffffffffffffffffffffffffffffffffffffff1602179055508173ffffffffffffffffffffffffffffffffffffffff168173ffffffffffffffffffffffffffffffffffffffff167f8be0079c531659141344cd1fd0a4f28419497f9722a3daafe3b4186f6b6457e060405160405180910390a35050565b6119066109c8565b15611946576040517f08c379a000000000000000000000000000000000000000000000000000000000815260040161193d9061233f565b60405180910390fd5b6001600560006101000a81548160ff0219169083151502179055507f62e78cea01bee320cd4e420270b5ea74000d11b0c9f74754ebdbfc544b05a25861198a610f82565b604051611997919061220c565b60405180910390a1565b6119a96109c8565b156119e9576040517f08c379a00000000000000000000000000000000000000000000000000000000081526004016119e09061233f565b60405180910390fd5b6119f4838383610f13565b505050565b505050565b606060006002836002611a119190612512565b611a1b91906124bc565b67ffffffffffffffff811115611a5a577f4e487b7100000000000000000000000000000000000000000000000000000000600052604160045260246000fd5b6040519080825280601f01601f191660200182016040528015611a8c5781602001600182028036833780820191505090505b5090507f300000000000000000000000000000000000000000000000000000000000000081600081518110611aea577f4e487b7100000000000000000000000000000000000000000000000000000000600052603260045260246000fd5b60200101907effffffffffffffffffffffffffffffffffffffffffffffffffffffffffffff1916908160001a9053507f780000000000000000000000000000000000000000000000000000000000000081600181518110611b74577f4e487b7100000000000000000000000000000000000000000000000000000000600052603260045260246000fd5b60200101907effffffffffffffffffffffffffffffffffffffffffffffffffffffffffffff1916908160001a90535060006001846002611bb49190612512565b611bbe91906124bc565b90505b6001811115611caa577f3031323334353637383961626364656600000000000000000000000000000000600f861660108110611c26577f4e487b7100000000000000000000000000000000000000000000000000000000600052603260045260246000fd5b1a60f81b828281518110611c63577f4e487b7100000000000000000000000000000000000000000000000000000000600052603260045260246000fd5b60200101907effffffffffffffffffffffffffffffffffffffffffffffffffffffffffffff1916908160001a905350600485901c945080611ca39061262a565b9050611bc1565b5060008414611cee576040517f08c379a0000000000000000000000000000000000000000000000000000000008152600401611ce59061227f565b60405180910390fd5b8091505092915050565b600081359050611d0781612b2a565b92915050565b600081359050611d1c81612b41565b92915050565b600081359050611d3181612b58565b92915050565b600081359050611d4681612b6f565b92915050565b600060208284031215611d5e57600080fd5b6000611d6c84828501611cf8565b91505092915050565b60008060408385031215611d8857600080fd5b6000611d9685828601611cf8565b9250506020611da785828601611cf8565b9150509250929050565b600080600060608486031215611dc657600080fd5b6000611dd486828701611cf8565b9350506020611de586828701611cf8565b9250506040611df686828701611d37565b9150509250925092565b60008060408385031215611e1357600080fd5b6000611e2185828601611cf8565b9250506020611e3285828601611d37565b9150509250929050565b600060208284031215611e4e57600080fd5b6000611e5c84828501611d0d565b91505092915050565b60008060408385031215611e7857600080fd5b6000611e8685828601611d0d565b9250506020611e9785828601611cf8565b9150509250929050565b600060208284031215611eb357600080fd5b6000611ec184828501611d22565b91505092915050565b611ed38161256c565b82525050565b611ee28161257e565b82525050565b611ef18161258a565b82525050565b6000611f0282612495565b611f0c81856124a0565b9350611f1c8185602086016125f7565b611f25816126e4565b840191505092915050565b6000611f3b82612495565b611f4581856124b1565b9350611f558185602086016125f7565b80840191505092915050565b6000611f6e6020836124a0565b9150611f79826126f5565b602082019050919050565b6000611f916023836124a0565b9150611f9c8261271e565b604082019050919050565b6000611fb46014836124a0565b9150611fbf8261276d565b602082019050919050565b6000611fd76026836124a0565b9150611fe282612796565b604082019050919050565b6000611ffa6022836124a0565b9150612005826127e5565b604082019050919050565b600061201d6026836124a0565b915061202882612834565b604082019050919050565b60006120406010836124a0565b915061204b82612883565b602082019050919050565b60006120636028836124a0565b915061206e826128ac565b604082019050919050565b60006120866020836124a0565b9150612091826128fb565b602082019050919050565b60006120a96025836124a0565b91506120b482612924565b604082019050919050565b60006120cc602c836124a0565b91506120d782612973565b604082019050919050565b60006120ef6024836124a0565b91506120fa826129c2565b604082019050919050565b60006121126017836124b1565b915061211d82612a11565b601782019050919050565b60006121356025836124a0565b915061214082612a3a565b604082019050919050565b60006121586011836124b1565b915061216382612a89565b601182019050919050565b600061217b602f836124a0565b915061218682612ab2565b604082019050919050565b600061219e601f836124a0565b91506121a982612b01565b602082019050919050565b6121bd816125e0565b82525050565b6121cc816125ea565b82525050565b60006121dd82612105565b91506121e98285611f30565b91506121f48261214b565b91506122008284611f30565b91508190509392505050565b60006020820190506122216000830184611eca565b92915050565b600060208201905061223c6000830184611ed9565b92915050565b60006020820190506122576000830184611ee8565b92915050565b600060208201905081810360008301526122778184611ef7565b905092915050565b6000602082019050818103600083015261229881611f61565b9050919050565b600060208201905081810360008301526122b881611f84565b9050919050565b600060208201905081810360008301526122d881611fa7565b9050919050565b600060208201905081810360008301526122f881611fca565b9050919050565b6000602082019050818103600083015261231881611fed565b9050919050565b6000602082019050818103600083015261233881612010565b9050919050565b6000602082019050818103600083015261235881612033565b9050919050565b6000602082019050818103600083015261237881612056565b9050919050565b6000602082019050818103600083015261239881612079565b9050919050565b600060208201905081810360008301526123b88161209c565b9050919050565b600060208201905081810360008301526123d8816120bf565b9050919050565b600060208201905081810360008301526123f8816120e2565b9050919050565b6000602082019050818103600083015261241881612128565b9050919050565b600060208201905081810360008301526124388161216e565b9050919050565b6000602082019050818103600083015261245881612191565b9050919050565b600060208201905061247460008301846121b4565b92915050565b600060208201905061248f60008301846121c3565b92915050565b600081519050919050565b600082825260208201905092915050565b600081905092915050565b60006124c7826125e0565b91506124d2836125e0565b9250827fffffffffffffffffffffffffffffffffffffffffffffffffffffffffffffffff0382111561250757612506612686565b5b828201905092915050565b600061251d826125e0565b9150612528836125e0565b9250817fffffffffffffffffffffffffffffffffffffffffffffffffffffffffffffffff048311821515161561256157612560612686565b5b828202905092915050565b6000612577826125c0565b9050919050565b60008115159050919050565b6000819050919050565b60007fffffffff0000000000000000000000000000000000000000000000000000000082169050919050565b600073ffffffffffffffffffffffffffffffffffffffff82169050919050565b6000819050919050565b600060ff82169050919050565b60005b838110156126155780820151818401526020810190506125fa565b83811115612624576000848401525b50505050565b6000612635826125e0565b9150600082141561264957612648612686565b5b600182039050919050565b6000600282049050600182168061266c57607f821691505b602082108114156126805761267f6126b5565b5b50919050565b7f4e487b7100000000000000000000000000000000000000000000000000000000600052601160045260246000fd5b7f4e487b7100000000000000000000000000000000000000000000000000000000600052602260045260246000fd5b6000601f19601f8301169050919050565b7f537472696e67733a20686578206c656e67746820696e73756666696369656e74600082015250565b7f45524332303a207472616e7366657220746f20746865207a65726f206164647260008201527f6573730000000000000000000000000000000000000000000000000000000000602082015250565b7f5061757361626c653a206e6f7420706175736564000000000000000000000000600082015250565b7f4f776e61626c653a206e6577206f776e657220697320746865207a65726f206160008201527f6464726573730000000000000000000000000000000000000000000000000000602082015250565b7f45524332303a20617070726f766520746f20746865207a65726f20616464726560008201527f7373000000000000000000000000000000000000000000000000000000000000602082015250565b7f45524332303a207472616e7366657220616d6f756e742065786365656473206260008201527f616c616e63650000000000000000000000000000000000000000000000000000602082015250565b7f5061757361626c653a2070617573656400000000000000000000000000000000600082015250565b7f45524332303a207472616e7366657220616d6f756e742065786365656473206160008201527f6c6c6f77616e6365000000000000000000000000000000000000000000000000602082015250565b7f4f776e61626c653a2063616c6c6572206973206e6f7420746865206f776e6572600082015250565b7f45524332303a207472616e736665722066726f6d20746865207a65726f20616460008201527f6472657373000000000000000000000000000000000000000000000000000000602082015250565b7f45524332303a2063616e6e6f74206d696e74206d6f726520746f6b656e732c2060008201527f6361702065786365656465640000000000000000000000000000000000000000602082015250565b7f45524332303a20617070726f76652066726f6d20746865207a65726f2061646460008201527f7265737300000000000000000000000000000000000000000000000000000000602082015250565b7f416363657373436f6e74726f6c3a206163636f756e7420000000000000000000600082015250565b7f45524332303a2064656372656173656420616c6c6f77616e63652062656c6f7760008201527f207a65726f000000000000000000000000000000000000000000000000000000602082015250565b7f206973206d697373696e6720726f6c6520000000000000000000000000000000600082015250565b7f416363657373436f6e74726f6c3a2063616e206f6e6c792072656e6f756e636560008201527f20726f6c657320666f722073656c660000000000000000000000000000000000602082015250565b7f45524332303a206d696e7420746f20746865207a65726f206164647265737300600082015250565b612b338161256c565b8114612b3e57600080fd5b50565b612b4a8161258a565b8114612b5557600080fd5b50565b612b6181612594565b8114612b6c57600080fd5b50565b612b78816125e0565b8114612b8357600080fd5b5056fea26469706673582212201facb58087feb8a40d4750627494ebe89eff2eeaf1ed7041e3a9e2d941db833e64736f6c63430008020033",
  "immutableReferences": {},
  "source": "// SPDX-License-Identifier: MIT\n\npragma solidity ^0.8.2;\n\nimport \"@openzeppelin/contracts/token/ERC20/ERC20.sol\";\nimport \"@openzeppelin/contracts/security/Pausable.sol\";\nimport \"@openzeppelin/contracts/access/AccessControl.sol\";\nimport \"@openzeppelin/contracts/access/Ownable.sol\";\n\ncontract BaseToken is ERC20, Pausable, AccessControl, Ownable {\n\n    bytes32 public constant PAUSER_ROLE = keccak256(\"PAUSER_ROLE\");\n    bytes32 public constant MINTER_ROLE = keccak256(\"MINTER_ROLE\");\n\n    uint256 private _maxSupply;\n    uint256 private _initialSupply; // \n\n    constructor(\n        string memory _name,\n        string memory _symbol,\n        uint256 _initMint,\n        uint256 _maxMint\n    ) ERC20(_name, _symbol) {\n\n        _setupRole(DEFAULT_ADMIN_ROLE, _msgSender());\n        _setupRole(PAUSER_ROLE, _msgSender());\n        _setupRole(MINTER_ROLE, _msgSender());\n        \n        _initialSupply = _initMint * 10**decimals();\n        _mint(_msgSender(), _initialSupply);\n        _maxSupply = _maxMint * 10**decimals();\n    }\n\n    function pause() public onlyRole(PAUSER_ROLE) {\n        _pause();\n    }\n\n    function unpause() public onlyRole(PAUSER_ROLE) {\n        _unpause();\n    }\n\n    function mint(address to, uint256 amount) public onlyRole(MINTER_ROLE) {\n        require(totalSupply() + amount <= _maxSupply, \"ERC20: cannot mint more tokens, cap exceeded\");\n        _mint(to, amount);\n    }\n\n    function _beforeTokenTransfer(\n        address from,\n        address to,\n        uint256 amount\n    ) internal override whenNotPaused {\n        super._beforeTokenTransfer(from, to, amount);\n    }\n\n}",
  "sourcePath": "/Users/contracts/BaseToken.sol",
  "compiler": {
    "name": "solc",
    "version": "0.8.2+commit.661d1103.Emscripten.clang"
  },
  "schemaVersion": "3.4.4",
  "updatedAt": "2022-05-02T06:14:31.544Z",
  "networkType": "ethereum",
  "devdoc": {
    "kind": "dev",
    "methods": {
      "allowance(address,address)": {
        "details": "See {IERC20-allowance}."
      },
      "approve(address,uint256)": {
        "details": "See {IERC20-approve}. Requirements: - `spender` cannot be the zero address."
      },
      "balanceOf(address)": {
        "details": "See {IERC20-balanceOf}."
      },
      "decimals()": {
        "details": "Returns the number of decimals used to get its user representation. For example, if `decimals` equals `2`, a balance of `505` tokens should be displayed to a user as `5.05` (`505 / 10 ** 2`). Tokens usually opt for a value of 18, imitating the relationship between Ether and Wei. This is the value {ERC20} uses, unless this function is overridden; NOTE: This information is only used for _display_ purposes: it in no way affects any of the arithmetic of the contract, including {IERC20-balanceOf} and {IERC20-transfer}."
      },
      "decreaseAllowance(address,uint256)": {
        "details": "Atomically decreases the allowance granted to `spender` by the caller. This is an alternative to {approve} that can be used as a mitigation for problems described in {IERC20-approve}. Emits an {Approval} event indicating the updated allowance. Requirements: - `spender` cannot be the zero address. - `spender` must have allowance for the caller of at least `subtractedValue`."
      },
      "getRoleAdmin(bytes32)": {
        "details": "Returns the admin role that controls `role`. See {grantRole} and {revokeRole}. To change a role's admin, use {_setRoleAdmin}."
      },
      "grantRole(bytes32,address)": {
        "details": "Grants `role` to `account`. If `account` had not been already granted `role`, emits a {RoleGranted} event. Requirements: - the caller must have ``role``'s admin role."
      },
      "hasRole(bytes32,address)": {
        "details": "Returns `true` if `account` has been granted `role`."
      },
      "increaseAllowance(address,uint256)": {
        "details": "Atomically increases the allowance granted to `spender` by the caller. This is an alternative to {approve} that can be used as a mitigation for problems described in {IERC20-approve}. Emits an {Approval} event indicating the updated allowance. Requirements: - `spender` cannot be the zero address."
      },
      "name()": {
        "details": "Returns the name of the token."
      },
      "owner()": {
        "details": "Returns the address of the current owner."
      },
      "paused()": {
        "details": "Returns true if the contract is paused, and false otherwise."
      },
      "renounceOwnership()": {
        "details": "Leaves the contract without owner. It will not be possible to call `onlyOwner` functions anymore. Can only be called by the current owner. NOTE: Renouncing ownership will leave the contract without an owner, thereby removing any functionality that is only available to the owner."
      },
      "renounceRole(bytes32,address)": {
        "details": "Revokes `role` from the calling account. Roles are often managed via {grantRole} and {revokeRole}: this function's purpose is to provide a mechanism for accounts to lose their privileges if they are compromised (such as when a trusted device is misplaced). If the calling account had been granted `role`, emits a {RoleRevoked} event. Requirements: - the caller must be `account`."
      },
      "revokeRole(bytes32,address)": {
        "details": "Revokes `role` from `account`. If `account` had been granted `role`, emits a {RoleRevoked} event. Requirements: - the caller must have ``role``'s admin role."
      },
      "supportsInterface(bytes4)": {
        "details": "See {IERC165-supportsInterface}."
      },
      "symbol()": {
        "details": "Returns the symbol of the token, usually a shorter version of the name."
      },
      "totalSupply()": {
        "details": "See {IERC20-totalSupply}."
      },
      "transfer(address,uint256)": {
        "details": "See {IERC20-transfer}. Requirements: - `recipient` cannot be the zero address. - the caller must have a balance of at least `amount`."
      },
      "transferFrom(address,address,uint256)": {
        "details": "See {IERC20-transferFrom}. Emits an {Approval} event indicating the updated allowance. This is not required by the EIP. See the note at the beginning of {ERC20}. Requirements: - `sender` and `recipient` cannot be the zero address. - `sender` must have a balance of at least `amount`. - the caller must have allowance for ``sender``'s tokens of at least `amount`."
      },
      "transferOwnership(address)": {
        "details": "Transfers ownership of the contract to a new account (`newOwner`). Can only be called by the current owner."
      }
    },
    "version": 1
  },
  "userdoc": {
    "kind": "user",
    "methods": {},
    "version": 1
  }
}